{
  "address": "0xD5510eeBFB1AF5592a7C7DE933DAf0d9EeA21E1c",
  "abi": [
    {
      "inputs": [],
      "stateMutability": "nonpayable",
      "type": "constructor"
    },
    {
      "inputs": [],
      "name": "ECDSAInvalidSignature",
      "type": "error"
    },
    {
      "inputs": [
        {
          "internalType": "uint256",
          "name": "length",
          "type": "uint256"
        }
      ],
      "name": "ECDSAInvalidSignatureLength",
      "type": "error"
    },
    {
      "inputs": [
        {
          "internalType": "bytes32",
          "name": "s",
          "type": "bytes32"
        }
      ],
      "name": "ECDSAInvalidSignatureS",
      "type": "error"
    },
    {
      "inputs": [],
      "name": "InvalidShortString",
      "type": "error"
    },
    {
      "inputs": [
        {
          "internalType": "string",
          "name": "str",
          "type": "string"
        }
      ],
      "name": "StringTooLong",
      "type": "error"
    },
    {
      "anonymous": false,
      "inputs": [
        {
          "indexed": true,
          "internalType": "address",
          "name": "user",
          "type": "address"
        }
      ],
      "name": "Authenticated",
      "type": "event"
    },
    {
      "anonymous": false,
      "inputs": [],
      "name": "EIP712DomainChanged",
      "type": "event"
    },
    {
      "inputs": [
        {
          "internalType": "address",
          "name": "user",
          "type": "address"
        },
        {
          "internalType": "bytes",
          "name": "signature",
          "type": "bytes"
        }
      ],
      "name": "authenticate",
      "outputs": [],
      "stateMutability": "nonpayable",
      "type": "function"
    },
    {
      "inputs": [
        {
          "internalType": "address",
          "name": "",
          "type": "address"
        }
      ],
      "name": "authenticated",
      "outputs": [
        {
          "internalType": "bool",
          "name": "",
          "type": "bool"
        }
      ],
      "stateMutability": "view",
      "type": "function"
    },
    {
      "inputs": [],
      "name": "eip712Domain",
      "outputs": [
        {
          "internalType": "bytes1",
          "name": "fields",
          "type": "bytes1"
        },
        {
          "internalType": "string",
          "name": "name",
          "type": "string"
        },
        {
          "internalType": "string",
          "name": "version",
          "type": "string"
        },
        {
          "internalType": "uint256",
          "name": "chainId",
          "type": "uint256"
        },
        {
          "internalType": "address",
          "name": "verifyingContract",
          "type": "address"
        },
        {
          "internalType": "bytes32",
          "name": "salt",
          "type": "bytes32"
        },
        {
          "internalType": "uint256[]",
          "name": "extensions",
          "type": "uint256[]"
        }
      ],
      "stateMutability": "view",
      "type": "function"
    },
    {
      "inputs": [
        {
          "internalType": "address",
          "name": "user",
          "type": "address"
        }
      ],
      "name": "getNonce",
      "outputs": [
        {
          "internalType": "uint256",
          "name": "",
          "type": "uint256"
        }
      ],
      "stateMutability": "view",
      "type": "function"
    },
    {
      "inputs": [
        {
          "internalType": "address",
          "name": "user",
          "type": "address"
        }
      ],
      "name": "isAuthenticated",
      "outputs": [
        {
          "internalType": "bool",
          "name": "",
          "type": "bool"
        }
      ],
      "stateMutability": "view",
      "type": "function"
    },
    {
      "inputs": [
        {
          "internalType": "address",
          "name": "",
          "type": "address"
        }
      ],
      "name": "nonces",
      "outputs": [
        {
          "internalType": "uint256",
          "name": "",
          "type": "uint256"
        }
      ],
      "stateMutability": "view",
      "type": "function"
    }
  ],
  "transactionHash": "0x720db58e2d21a0b03c1f4702d54e92e082a25d0692264478c6037aa2d32e9863",
  "args": [],
  "numDeployments": 1,
  "solcInputHash": "977f757ca43468100e7059e592ab95b6",
  "bytecode": "0x6101606040523480156200001257600080fd5b50604080518082018252600d81526c20baba3432b73a34b1b0ba37b960991b602080830191909152825180840190935260018352603160f81b90830152906200005d8260006200010b565b610120526200006e8160016200010b565b61014052815160208084019190912060e052815190820120610100524660a052620000fc60e05161010051604080517f8b73c3c69bb8fe3d512ecc4cf759cc79239f7b179b0ffacaa9a75d522b39400f60208201529081019290925260608201524660808201523060a082015260009060c00160405160208183030381529060405280519060200120905090565b60805250503060c05262000376565b60006020835110156200012b57620001238362000144565b90506200013e565b8162000138848262000235565b5060ff90505b92915050565b600080829050601f815111156200017b578260405163305a27a960e01b815260040162000172919062000301565b60405180910390fd5b8051620001888262000351565b179392505050565b634e487b7160e01b600052604160045260246000fd5b600181811c90821680620001bb57607f821691505b602082108103620001dc57634e487b7160e01b600052602260045260246000fd5b50919050565b601f8211156200023057600081815260208120601f850160051c810160208610156200020b5750805b601f850160051c820191505b818110156200022c5782815560010162000217565b5050505b505050565b81516001600160401b0381111562000251576200025162000190565b6200026981620002628454620001a6565b84620001e2565b602080601f831160018114620002a15760008415620002885750858301515b600019600386901b1c1916600185901b1785556200022c565b600085815260208120601f198616915b82811015620002d257888601518255948401946001909101908401620002b1565b5085821015620002f15787850151600019600388901b60f8161c191681555b5050505050600190811b01905550565b600060208083528351808285015260005b81811015620003305785810183015185820160400152820162000312565b506000604082860101526040601f19601f8301168501019250505092915050565b80516020808301519190811015620001dc5760001960209190910360031b1b16919050565b60805160a05160c05160e051610100516101205161014051610a62620003d1600039600061032a015260006102f8015260006105320152600061050a015260006104650152600061048f015260006104b90152610a626000f3fe608060405234801561001057600080fd5b50600436106100625760003560e01c80632d0335ab146100675780637ecebe00146100a357806384b0196e146100c3578063d15d4150146100de578063d9a1693b1461011a578063dd24e39d1461013d575b600080fd5b6100906100753660046107df565b6001600160a01b031660009081526002602052604090205490565b6040519081526020015b60405180910390f35b6100906100b13660046107df565b60026020526000908152604090205481565b6100cb610152565b60405161009a9796959493929190610847565b61010a6100ec3660046107df565b6001600160a01b031660009081526003602052604090205460ff1690565b604051901515815260200161009a565b61010a6101283660046107df565b60036020526000908152604090205460ff1681565b61015061014b3660046108f3565b610198565b005b6000606080600080600060606101666102f1565b61016e610323565b60408051600080825260208201909252600f60f81b9b939a50919850469750309650945092509050565b6001600160a01b03821660008181526002602090815260408083205481517fae7f09c1fca5f1dbbb616c8fbe60c5261291f5d437c8aa719f8a98ccb1a77d388185015280830195909552606080860191909152815180860390910181526080909401905282519201919091209061020e82610350565b9050600061021c8285610383565b9050846001600160a01b0316816001600160a01b0316146102785760405162461bcd60e51b8152602060048201526011602482015270496e76616c6964207369676e617475726560781b60448201526064015b60405180910390fd5b6001600160a01b038516600090815260026020526040812080549161029c836109b5565b90915550506001600160a01b038516600081815260036020526040808220805460ff19166001179055517f79709813a2634a858a649b5e0691635ab8273c6f55c4e51a0d4f3a22cd89a7389190a25050505050565b606061031e7f000000000000000000000000000000000000000000000000000000000000000060006103ad565b905090565b606061031e7f000000000000000000000000000000000000000000000000000000000000000060016103ad565b600061037d61035d610458565b8360405161190160f01b8152600281019290925260228201526042902090565b92915050565b6000806000806103938686610583565b9250925092506103a382826105d0565b5090949350505050565b606060ff83146103c7576103c08361068d565b905061037d565b8180546103d3906109dc565b80601f01602080910402602001604051908101604052809291908181526020018280546103ff906109dc565b801561044c5780601f106104215761010080835404028352916020019161044c565b820191906000526020600020905b81548152906001019060200180831161042f57829003601f168201915b5050505050905061037d565b6000306001600160a01b037f0000000000000000000000000000000000000000000000000000000000000000161480156104b157507f000000000000000000000000000000000000000000000000000000000000000046145b156104db57507f000000000000000000000000000000000000000000000000000000000000000090565b61031e604080517f8b73c3c69bb8fe3d512ecc4cf759cc79239f7b179b0ffacaa9a75d522b39400f60208201527f0000000000000000000000000000000000000000000000000000000000000000918101919091527f000000000000000000000000000000000000000000000000000000000000000060608201524660808201523060a082015260009060c00160405160208183030381529060405280519060200120905090565b600080600083516041036105bd5760208401516040850151606086015160001a6105af888285856106cc565b9550955095505050506105c9565b50508151600091506002905b9250925092565b60008260038111156105e4576105e4610a16565b036105ed575050565b600182600381111561060157610601610a16565b0361061f5760405163f645eedf60e01b815260040160405180910390fd5b600282600381111561063357610633610a16565b036106545760405163fce698f760e01b81526004810182905260240161026f565b600382600381111561066857610668610a16565b03610689576040516335e2f38360e21b81526004810182905260240161026f565b5050565b6060600061069a8361079b565b604080516020808252818301909252919250600091906020820181803683375050509182525060208101929092525090565b600080807f7fffffffffffffffffffffffffffffff5d576e7357a4501ddfe92f46681b20a08411156107075750600091506003905082610791565b604080516000808252602082018084528a905260ff891692820192909252606081018790526080810186905260019060a0016020604051602081039080840390855afa15801561075b573d6000803e3d6000fd5b5050604051601f1901519150506001600160a01b03811661078757506000925060019150829050610791565b9250600091508190505b9450945094915050565b600060ff8216601f81111561037d57604051632cd44ac360e21b815260040160405180910390fd5b80356001600160a01b03811681146107da57600080fd5b919050565b6000602082840312156107f157600080fd5b6107fa826107c3565b9392505050565b6000815180845260005b818110156108275760208185018101518683018201520161080b565b506000602082860101526020601f19601f83011685010191505092915050565b60ff60f81b881681526000602060e08184015261086760e084018a610801565b8381036040850152610879818a610801565b606085018990526001600160a01b038816608086015260a0850187905284810360c0860152855180825283870192509083019060005b818110156108cb578351835292840192918401916001016108af565b50909c9b505050505050505050505050565b634e487b7160e01b600052604160045260246000fd5b6000806040838503121561090657600080fd5b61090f836107c3565b9150602083013567ffffffffffffffff8082111561092c57600080fd5b818501915085601f83011261094057600080fd5b813581811115610952576109526108dd565b604051601f8201601f19908116603f0116810190838211818310171561097a5761097a6108dd565b8160405282815288602084870101111561099357600080fd5b8260208601602083013760006020848301015280955050505050509250929050565b6000600182016109d557634e487b7160e01b600052601160045260246000fd5b5060010190565b600181811c908216806109f057607f821691505b602082108103610a1057634e487b7160e01b600052602260045260246000fd5b50919050565b634e487b7160e01b600052602160045260246000fdfea26469706673582212201bdda862b904ff97be8088368ed5c6b4d9884c04bab33bea50ca09e2489661e464736f6c63430008140033",
  "devdoc": {
    "errors": {
      "ECDSAInvalidSignature()": [
        {
          "details": "The signature derives the `address(0)`."
        }
      ],
      "ECDSAInvalidSignatureLength(uint256)": [
        {
          "details": "The signature has an invalid length."
        }
      ],
      "ECDSAInvalidSignatureS(bytes32)": [
        {
          "details": "The signature has an S value that is in the upper half order."
        }
      ]
    },
    "events": {
      "EIP712DomainChanged()": {
        "details": "MAY be emitted to signal that the domain could have changed."
      }
    },
    "kind": "dev",
    "methods": {
      "eip712Domain()": {
        "details": "See {IERC-5267}."
      }
    },
    "version": 1
  },
  "userdoc": {
    "kind": "user",
    "methods": {},
    "version": 1
  },
  "storageLayout": {
    "storage": [
      {
        "astId": 991,
        "contract": "contracts/Authenticator.sol:Authenticator",
        "label": "_nameFallback",
        "offset": 0,
        "slot": "0",
        "type": "t_string_storage"
      },
      {
        "astId": 993,
        "contract": "contracts/Authenticator.sol:Authenticator",
        "label": "_versionFallback",
        "offset": 0,
        "slot": "1",
        "type": "t_string_storage"
      },
      {
        "astId": 2432,
        "contract": "contracts/Authenticator.sol:Authenticator",
        "label": "nonces",
        "offset": 0,
        "slot": "2",
        "type": "t_mapping(t_address,t_uint256)"
      },
      {
        "astId": 2436,
        "contract": "contracts/Authenticator.sol:Authenticator",
        "label": "authenticated",
        "offset": 0,
        "slot": "3",
        "type": "t_mapping(t_address,t_bool)"
      }
    ],
    "types": {
      "t_address": {
        "encoding": "inplace",
        "label": "address",
        "numberOfBytes": "20"
      },
      "t_bool": {
        "encoding": "inplace",
        "label": "bool",
        "numberOfBytes": "1"
      },
      "t_mapping(t_address,t_bool)": {
        "encoding": "mapping",
        "key": "t_address",
        "label": "mapping(address => bool)",
        "numberOfBytes": "32",
        "value": "t_bool"
      },
      "t_mapping(t_address,t_uint256)": {
        "encoding": "mapping",
        "key": "t_address",
        "label": "mapping(address => uint256)",
        "numberOfBytes": "32",
        "value": "t_uint256"
      },
      "t_string_storage": {
        "encoding": "bytes",
        "label": "string",
        "numberOfBytes": "32"
      },
      "t_uint256": {
        "encoding": "inplace",
        "label": "uint256",
        "numberOfBytes": "32"
      }
    }
  }
}